{
  "_format": "hh-sol-artifact-1",
  "contractName": "QuestReward",
  "sourceName": "contracts/QuestReward.sol",
  "abi": [
    {
      "inputs": [
        {
          "internalType": "address",
          "name": "_tavern",
          "type": "address"
        },
        {
          "internalType": "address",
          "name": "_creator",
          "type": "address"
        },
        {
          "internalType": "string",
          "name": "_name",
          "type": "string"
        },
        {
          "internalType": "string",
          "name": "_hint",
          "type": "string"
        },
        {
          "internalType": "uint256",
          "name": "_maxWinners",
          "type": "uint256"
        },
        {
          "internalType": "bytes32",
          "name": "_merkleRoot",
          "type": "bytes32"
        },
        {
          "internalType": "string",
          "name": "_merkleBody",
          "type": "string"
        },
        {
          "internalType": "string",
          "name": "_metadata",
          "type": "string"
        }
      ],
      "name": "validateQuest",
      "outputs": [
        {
          "internalType": "bool",
          "name": "",
          "type": "bool"
        }
      ],
      "stateMutability": "pure",
      "type": "function"
    }
  ],
  "bytecode": "0x608060405234801561001057600080fd5b50610428806100206000396000f3fe608060405234801561001057600080fd5b506004361061002b5760003560e01c8063e9e8218514610030575b600080fd5b61004a60048036038101906100459190610296565b610060565b60405161005791906103d7565b60405180910390f35b60006001905098975050505050505050565b6000604051905090565b600080fd5b600080fd5b600073ffffffffffffffffffffffffffffffffffffffff82169050919050565b60006100b182610086565b9050919050565b6100c1816100a6565b81146100cc57600080fd5b50565b6000813590506100de816100b8565b92915050565b600080fd5b600080fd5b6000601f19601f8301169050919050565b7f4e487b7100000000000000000000000000000000000000000000000000000000600052604160045260246000fd5b610137826100ee565b810181811067ffffffffffffffff82111715610156576101556100ff565b5b80604052505050565b6000610169610072565b9050610175828261012e565b919050565b600067ffffffffffffffff821115610195576101946100ff565b5b61019e826100ee565b9050602081019050919050565b82818337600083830152505050565b60006101cd6101c88461017a565b61015f565b9050828152602081018484840111156101e9576101e86100e9565b5b6101f48482856101ab565b509392505050565b600082601f830112610211576102106100e4565b5b81356102218482602086016101ba565b91505092915050565b6000819050919050565b61023d8161022a565b811461024857600080fd5b50565b60008135905061025a81610234565b92915050565b6000819050919050565b61027381610260565b811461027e57600080fd5b50565b6000813590506102908161026a565b92915050565b600080600080600080600080610100898b0312156102b7576102b661007c565b5b60006102c58b828c016100cf565b98505060206102d68b828c016100cf565b975050604089013567ffffffffffffffff8111156102f7576102f6610081565b5b6103038b828c016101fc565b965050606089013567ffffffffffffffff81111561032457610323610081565b5b6103308b828c016101fc565b95505060806103418b828c0161024b565b94505060a06103528b828c01610281565b93505060c089013567ffffffffffffffff81111561037357610372610081565b5b61037f8b828c016101fc565b92505060e089013567ffffffffffffffff8111156103a05761039f610081565b5b6103ac8b828c016101fc565b9150509295985092959890939650565b60008115159050919050565b6103d1816103bc565b82525050565b60006020820190506103ec60008301846103c8565b9291505056fea2646970667358221220c6a1e955e4c090ae8a521f13bf0805e71f7e87ab427275986b97ec595a72867864736f6c63430008140033",
  "linkReferences": {},
  "deployedLinkReferences": {}
}