{
  "_format": "hh-sol-artifact-1",
  "contractName": "Quests",
  "sourceName": "contracts/CreateQuest.sol",
  "abi": [
    {
      "anonymous": false,
      "inputs": [
        {
          "indexed": false,
          "internalType": "uint256",
          "name": "id",
          "type": "uint256"
        },
        {
          "indexed": false,
          "internalType": "bool",
          "name": "completed",
          "type": "bool"
        }
      ],
      "name": "QuestCompletion",
      "type": "event"
    },
    {
      "anonymous": false,
      "inputs": [
        {
          "indexed": false,
          "internalType": "uint256",
          "name": "id",
          "type": "uint256"
        },
        {
          "indexed": false,
          "internalType": "string",
          "name": "title",
          "type": "string"
        },
        {
          "indexed": false,
          "internalType": "string",
          "name": "description",
          "type": "string"
        },
        {
          "indexed": false,
          "internalType": "string",
          "name": "steps",
          "type": "string"
        },
        {
          "indexed": false,
          "internalType": "string",
          "name": "reward",
          "type": "string"
        },
        {
          "indexed": false,
          "internalType": "bool",
          "name": "completed",
          "type": "bool"
        }
      ],
      "name": "QuestSubmission",
      "type": "event"
    },
    {
      "inputs": [
        {
          "internalType": "uint256",
          "name": "_questId",
          "type": "uint256"
        }
      ],
      "name": "completeQuest",
      "outputs": [],
      "stateMutability": "nonpayable",
      "type": "function"
    },
    {
      "inputs": [
        {
          "internalType": "string",
          "name": "_title",
          "type": "string"
        },
        {
          "internalType": "string",
          "name": "_description",
          "type": "string"
        },
        {
          "internalType": "string",
          "name": "_steps",
          "type": "string"
        },
        {
          "internalType": "string",
          "name": "_reward",
          "type": "string"
        }
      ],
      "name": "createQuest",
      "outputs": [],
      "stateMutability": "nonpayable",
      "type": "function"
    },
    {
      "inputs": [],
      "name": "getQuestList",
      "outputs": [
        {
          "components": [
            {
              "internalType": "uint256",
              "name": "id",
              "type": "uint256"
            },
            {
              "internalType": "string",
              "name": "title",
              "type": "string"
            },
            {
              "internalType": "string",
              "name": "description",
              "type": "string"
            },
            {
              "internalType": "string",
              "name": "steps",
              "type": "string"
            },
            {
              "internalType": "string",
              "name": "reward",
              "type": "string"
            },
            {
              "internalType": "bool",
              "name": "completed",
              "type": "bool"
            }
          ],
          "internalType": "struct Quests.QuestInfo[]",
          "name": "",
          "type": "tuple[]"
        }
      ],
      "stateMutability": "view",
      "type": "function"
    },
    {
      "inputs": [
        {
          "internalType": "uint256",
          "name": "",
          "type": "uint256"
        }
      ],
      "name": "questList",
      "outputs": [
        {
          "internalType": "uint256",
          "name": "id",
          "type": "uint256"
        },
        {
          "internalType": "string",
          "name": "title",
          "type": "string"
        },
        {
          "internalType": "string",
          "name": "description",
          "type": "string"
        },
        {
          "internalType": "string",
          "name": "steps",
          "type": "string"
        },
        {
          "internalType": "string",
          "name": "reward",
          "type": "string"
        },
        {
          "internalType": "bool",
          "name": "completed",
          "type": "bool"
        }
      ],
      "stateMutability": "view",
      "type": "function"
    }
  ],
  "bytecode": "0x608060405234801561001057600080fd5b5061159f806100206000396000f3fe608060405234801561001057600080fd5b506004361061004c5760003560e01c8063060f560d14610051578063528be0a91461006d5780637ac793b214610089578063edcb2342146100a7575b600080fd5b61006b60048036038101906100669190610aea565b6100dc565b005b61008760048036038101906100829190610bf7565b610331565b005b61009161044b565b60405161009e9190610e2d565b60405180910390f35b6100c160048036038101906100bc9190610bf7565b610717565b6040516100d396959493929190610eb7565b60405180910390f35b6000845111610120576040517f08c379a000000000000000000000000000000000000000000000000000000000815260040161011790610f80565b60405180910390fd5b6000835111610164576040517f08c379a000000000000000000000000000000000000000000000000000000000815260040161015b90610fec565b60405180910390fd5b60008251116101a8576040517f08c379a000000000000000000000000000000000000000000000000000000000815260040161019f90611058565b60405180910390fd5b60008151116101ec576040517f08c379a00000000000000000000000000000000000000000000000000000000081526004016101e3906110c4565b60405180910390fd5b60008054905060016040518060c0016040528083815260200187815260200186815260200185815260200184815260200160001515815250908060018154018082558091505060019003906000526020600020906006020160009091909190915060008201518160000155602082015181600101908161026c91906112f0565b50604082015181600201908161028291906112f0565b50606082015181600301908161029891906112f0565b5060808201518160040190816102ae91906112f0565b5060a08201518160050160006101000a81548160ff02191690831515021790555050506000808154809291906102e3906113f1565b91905055507f289fb660d3285d248e15737d44b2f524f3eb0aa9bcc5587c46a832a9f18523258186868686600060405161032296959493929190610eb7565b60405180910390a15050505050565b6001805490508110610378576040517f08c379a000000000000000000000000000000000000000000000000000000000815260040161036f90611485565b60405180910390fd5b60006001828154811061038e5761038d6114a5565b5b906000526020600020906006020190508060050160009054906101000a900460ff16156103f0576040517f08c379a00000000000000000000000000000000000000000000000000000000081526004016103e790611520565b60405180910390fd5b60018160050160006101000a81548160ff0219169083151502179055507f09034a9dfc89fa88bf4c7d1af7a5680b41be8fb720212efda417622ec1ba25ab82600160405161043f929190611540565b60405180910390a15050565b60606001805480602002602001604051908101604052809291908181526020016000905b8282101561070e57838290600052602060002090600602016040518060c0016040529081600082015481526020016001820180546104ac90611113565b80601f01602080910402602001604051908101604052809291908181526020018280546104d890611113565b80156105255780601f106104fa57610100808354040283529160200191610525565b820191906000526020600020905b81548152906001019060200180831161050857829003601f168201915b5050505050815260200160028201805461053e90611113565b80601f016020809104026020016040519081016040528092919081815260200182805461056a90611113565b80156105b75780601f1061058c576101008083540402835291602001916105b7565b820191906000526020600020905b81548152906001019060200180831161059a57829003601f168201915b505050505081526020016003820180546105d090611113565b80601f01602080910402602001604051908101604052809291908181526020018280546105fc90611113565b80156106495780601f1061061e57610100808354040283529160200191610649565b820191906000526020600020905b81548152906001019060200180831161062c57829003601f168201915b5050505050815260200160048201805461066290611113565b80601f016020809104026020016040519081016040528092919081815260200182805461068e90611113565b80156106db5780601f106106b0576101008083540402835291602001916106db565b820191906000526020600020905b8154815290600101906020018083116106be57829003601f168201915b505050505081526020016005820160009054906101000a900460ff1615151515815250508152602001906001019061046f565b50505050905090565b6001818154811061072757600080fd5b906000526020600020906006020160009150905080600001549080600101805461075090611113565b80601f016020809104026020016040519081016040528092919081815260200182805461077c90611113565b80156107c95780601f1061079e576101008083540402835291602001916107c9565b820191906000526020600020905b8154815290600101906020018083116107ac57829003601f168201915b5050505050908060020180546107de90611113565b80601f016020809104026020016040519081016040528092919081815260200182805461080a90611113565b80156108575780601f1061082c57610100808354040283529160200191610857565b820191906000526020600020905b81548152906001019060200180831161083a57829003601f168201915b50505050509080600301805461086c90611113565b80601f016020809104026020016040519081016040528092919081815260200182805461089890611113565b80156108e55780601f106108ba576101008083540402835291602001916108e5565b820191906000526020600020905b8154815290600101906020018083116108c857829003601f168201915b5050505050908060040180546108fa90611113565b80601f016020809104026020016040519081016040528092919081815260200182805461092690611113565b80156109735780601f1061094857610100808354040283529160200191610973565b820191906000526020600020905b81548152906001019060200180831161095657829003601f168201915b5050505050908060050160009054906101000a900460ff16905086565b6000604051905090565b600080fd5b600080fd5b600080fd5b600080fd5b6000601f19601f8301169050919050565b7f4e487b7100000000000000000000000000000000000000000000000000000000600052604160045260246000fd5b6109f7826109ae565b810181811067ffffffffffffffff82111715610a1657610a156109bf565b5b80604052505050565b6000610a29610990565b9050610a3582826109ee565b919050565b600067ffffffffffffffff821115610a5557610a546109bf565b5b610a5e826109ae565b9050602081019050919050565b82818337600083830152505050565b6000610a8d610a8884610a3a565b610a1f565b905082815260208101848484011115610aa957610aa86109a9565b5b610ab4848285610a6b565b509392505050565b600082601f830112610ad157610ad06109a4565b5b8135610ae1848260208601610a7a565b91505092915050565b60008060008060808587031215610b0457610b0361099a565b5b600085013567ffffffffffffffff811115610b2257610b2161099f565b5b610b2e87828801610abc565b945050602085013567ffffffffffffffff811115610b4f57610b4e61099f565b5b610b5b87828801610abc565b935050604085013567ffffffffffffffff811115610b7c57610b7b61099f565b5b610b8887828801610abc565b925050606085013567ffffffffffffffff811115610ba957610ba861099f565b5b610bb587828801610abc565b91505092959194509250565b6000819050919050565b610bd481610bc1565b8114610bdf57600080fd5b50565b600081359050610bf181610bcb565b92915050565b600060208284031215610c0d57610c0c61099a565b5b6000610c1b84828501610be2565b91505092915050565b600081519050919050565b600082825260208201905092915050565b6000819050602082019050919050565b610c5981610bc1565b82525050565b600081519050919050565b600082825260208201905092915050565b60005b83811015610c99578082015181840152602081019050610c7e565b60008484015250505050565b6000610cb082610c5f565b610cba8185610c6a565b9350610cca818560208601610c7b565b610cd3816109ae565b840191505092915050565b60008115159050919050565b610cf381610cde565b82525050565b600060c083016000830151610d116000860182610c50565b5060208301518482036020860152610d298282610ca5565b91505060408301518482036040860152610d438282610ca5565b91505060608301518482036060860152610d5d8282610ca5565b91505060808301518482036080860152610d778282610ca5565b91505060a0830151610d8c60a0860182610cea565b508091505092915050565b6000610da38383610cf9565b905092915050565b6000602082019050919050565b6000610dc382610c24565b610dcd8185610c2f565b935083602082028501610ddf85610c40565b8060005b85811015610e1b5784840389528151610dfc8582610d97565b9450610e0783610dab565b925060208a01995050600181019050610de3565b50829750879550505050505092915050565b60006020820190508181036000830152610e478184610db8565b905092915050565b610e5881610bc1565b82525050565b600082825260208201905092915050565b6000610e7a82610c5f565b610e848185610e5e565b9350610e94818560208601610c7b565b610e9d816109ae565b840191505092915050565b610eb181610cde565b82525050565b600060c082019050610ecc6000830189610e4f565b8181036020830152610ede8188610e6f565b90508181036040830152610ef28187610e6f565b90508181036060830152610f068186610e6f565b90508181036080830152610f1a8185610e6f565b9050610f2960a0830184610ea8565b979650505050505050565b7f5469746c652063616e6e6f7420626520656d7074790000000000000000000000600082015250565b6000610f6a601583610e5e565b9150610f7582610f34565b602082019050919050565b60006020820190508181036000830152610f9981610f5d565b9050919050565b7f4465736372697074696f6e2063616e6e6f7420626520656d7074790000000000600082015250565b6000610fd6601b83610e5e565b9150610fe182610fa0565b602082019050919050565b6000602082019050818103600083015261100581610fc9565b9050919050565b7f53746570732063616e6e6f7420626520656d7074790000000000000000000000600082015250565b6000611042601583610e5e565b915061104d8261100c565b602082019050919050565b6000602082019050818103600083015261107181611035565b9050919050565b7f5265776172642063616e6e6f7420626520656d70747900000000000000000000600082015250565b60006110ae601683610e5e565b91506110b982611078565b602082019050919050565b600060208201905081810360008301526110dd816110a1565b9050919050565b7f4e487b7100000000000000000000000000000000000000000000000000000000600052602260045260246000fd5b6000600282049050600182168061112b57607f821691505b60208210810361113e5761113d6110e4565b5b50919050565b60008190508160005260206000209050919050565b60006020601f8301049050919050565b600082821b905092915050565b6000600883026111a67fffffffffffffffffffffffffffffffffffffffffffffffffffffffffffffffff82611169565b6111b08683611169565b95508019841693508086168417925050509392505050565b6000819050919050565b60006111ed6111e86111e384610bc1565b6111c8565b610bc1565b9050919050565b6000819050919050565b611207836111d2565b61121b611213826111f4565b848454611176565b825550505050565b600090565b611230611223565b61123b8184846111fe565b505050565b5b8181101561125f57611254600082611228565b600181019050611241565b5050565b601f8211156112a45761127581611144565b61127e84611159565b8101602085101561128d578190505b6112a161129985611159565b830182611240565b50505b505050565b600082821c905092915050565b60006112c7600019846008026112a9565b1980831691505092915050565b60006112e083836112b6565b9150826002028217905092915050565b6112f982610c5f565b67ffffffffffffffff811115611312576113116109bf565b5b61131c8254611113565b611327828285611263565b600060209050601f83116001811461135a5760008415611348578287015190505b61135285826112d4565b8655506113ba565b601f19841661136886611144565b60005b828110156113905784890151825560018201915060208501945060208101905061136b565b868310156113ad57848901516113a9601f8916826112b6565b8355505b6001600288020188555050505b505050505050565b7f4e487b7100000000000000000000000000000000000000000000000000000000600052601160045260246000fd5b60006113fc82610bc1565b91507fffffffffffffffffffffffffffffffffffffffffffffffffffffffffffffffff820361142e5761142d6113c2565b5b600182019050919050565b7f496e76616c696420717565737420494400000000000000000000000000000000600082015250565b600061146f601083610e5e565b915061147a82611439565b602082019050919050565b6000602082019050818103600083015261149e81611462565b9050919050565b7f4e487b7100000000000000000000000000000000000000000000000000000000600052603260045260246000fd5b7f517565737420616c726561647920636f6d706c65746564000000000000000000600082015250565b600061150a601783610e5e565b9150611515826114d4565b602082019050919050565b60006020820190508181036000830152611539816114fd565b9050919050565b60006040820190506115556000830185610e4f565b6115626020830184610ea8565b939250505056fea264697066735822122006bff1c56deab8166454474bcb6bb5917952a14cb8c94fab2d3daab02517b59664736f6c63430008140033",
  "linkReferences": {},
  "deployedLinkReferences": {}
}