{"contracts/QuestReward.sol":{"QuestReward":{"abi":[{"inputs":[{"internalType":"address","name":"_tavern","type":"address"},{"internalType":"address","name":"_creator","type":"address"},{"internalType":"string","name":"_name","type":"string"},{"internalType":"string","name":"_hint","type":"string"},{"internalType":"uint256","name":"_maxWinners","type":"uint256"},{"internalType":"bytes32","name":"_merkleRoot","type":"bytes32"},{"internalType":"string","name":"_merkleBody","type":"string"},{"internalType":"string","name":"_metadata","type":"string"}],"name":"validateQuest","outputs":[{"internalType":"bool","name":"","type":"bool"}],"stateMutability":"pure","type":"function"}],"evm":{"bytecode":{"linkReferences":{},"object":"608060405234801561001057600080fd5b50610428806100206000396000f3fe608060405234801561001057600080fd5b506004361061002b5760003560e01c8063e9e8218514610030575b600080fd5b61004a60048036038101906100459190610296565b610060565b60405161005791906103d7565b60405180910390f35b60006001905098975050505050505050565b6000604051905090565b600080fd5b600080fd5b600073ffffffffffffffffffffffffffffffffffffffff82169050919050565b60006100b182610086565b9050919050565b6100c1816100a6565b81146100cc57600080fd5b50565b6000813590506100de816100b8565b92915050565b600080fd5b600080fd5b6000601f19601f8301169050919050565b7f4e487b7100000000000000000000000000000000000000000000000000000000600052604160045260246000fd5b610137826100ee565b810181811067ffffffffffffffff82111715610156576101556100ff565b5b80604052505050565b6000610169610072565b9050610175828261012e565b919050565b600067ffffffffffffffff821115610195576101946100ff565b5b61019e826100ee565b9050602081019050919050565b82818337600083830152505050565b60006101cd6101c88461017a565b61015f565b9050828152602081018484840111156101e9576101e86100e9565b5b6101f48482856101ab565b509392505050565b600082601f830112610211576102106100e4565b5b81356102218482602086016101ba565b91505092915050565b6000819050919050565b61023d8161022a565b811461024857600080fd5b50565b60008135905061025a81610234565b92915050565b6000819050919050565b61027381610260565b811461027e57600080fd5b50565b6000813590506102908161026a565b92915050565b600080600080600080600080610100898b0312156102b7576102b661007c565b5b60006102c58b828c016100cf565b98505060206102d68b828c016100cf565b975050604089013567ffffffffffffffff8111156102f7576102f6610081565b5b6103038b828c016101fc565b965050606089013567ffffffffffffffff81111561032457610323610081565b5b6103308b828c016101fc565b95505060806103418b828c0161024b565b94505060a06103528b828c01610281565b93505060c089013567ffffffffffffffff81111561037357610372610081565b5b61037f8b828c016101fc565b92505060e089013567ffffffffffffffff8111156103a05761039f610081565b5b6103ac8b828c016101fc565b9150509295985092959890939650565b60008115159050919050565b6103d1816103bc565b82525050565b60006020820190506103ec60008301846103c8565b9291505056fea2646970667358221220c6a1e955e4c090ae8a521f13bf0805e71f7e87ab427275986b97ec595a72867864736f6c63430008140033","opcodes":"PUSH1 0x80 PUSH1 0x40 MSTORE CALLVALUE DUP1 ISZERO PUSH2 0x10 JUMPI PUSH1 0x0 DUP1 REVERT JUMPDEST POP PUSH2 0x428 DUP1 PUSH2 0x20 PUSH1 0x0 CODECOPY PUSH1 0x0 RETURN INVALID PUSH1 0x80 PUSH1 0x40 MSTORE CALLVALUE DUP1 ISZERO PUSH2 0x10 JUMPI PUSH1 0x0 DUP1 REVERT JUMPDEST POP PUSH1 0x4 CALLDATASIZE LT PUSH2 0x2B JUMPI PUSH1 0x0 CALLDATALOAD PUSH1 0xE0 SHR DUP1 PUSH4 0xE9E82185 EQ PUSH2 0x30 JUMPI JUMPDEST PUSH1 0x0 DUP1 REVERT JUMPDEST PUSH2 0x4A PUSH1 0x4 DUP1 CALLDATASIZE SUB DUP2 ADD SWAP1 PUSH2 0x45 SWAP2 SWAP1 PUSH2 0x296 JUMP JUMPDEST PUSH2 0x60 JUMP JUMPDEST PUSH1 0x40 MLOAD PUSH2 0x57 SWAP2 SWAP1 PUSH2 0x3D7 JUMP JUMPDEST PUSH1 0x40 MLOAD DUP1 SWAP2 SUB SWAP1 RETURN JUMPDEST PUSH1 0x0 PUSH1 0x1 SWAP1 POP SWAP9 SWAP8 POP POP POP POP POP POP POP POP JUMP JUMPDEST PUSH1 0x0 PUSH1 0x40 MLOAD SWAP1 POP SWAP1 JUMP JUMPDEST PUSH1 0x0 DUP1 REVERT JUMPDEST PUSH1 0x0 DUP1 REVERT JUMPDEST PUSH1 0x0 PUSH20 0xFFFFFFFFFFFFFFFFFFFFFFFFFFFFFFFFFFFFFFFF DUP3 AND SWAP1 POP SWAP2 SWAP1 POP JUMP JUMPDEST PUSH1 0x0 PUSH2 0xB1 DUP3 PUSH2 0x86 JUMP JUMPDEST SWAP1 POP SWAP2 SWAP1 POP JUMP JUMPDEST PUSH2 0xC1 DUP2 PUSH2 0xA6 JUMP JUMPDEST DUP2 EQ PUSH2 0xCC JUMPI PUSH1 0x0 DUP1 REVERT JUMPDEST POP JUMP JUMPDEST PUSH1 0x0 DUP2 CALLDATALOAD SWAP1 POP PUSH2 0xDE DUP2 PUSH2 0xB8 JUMP JUMPDEST SWAP3 SWAP2 POP POP JUMP JUMPDEST PUSH1 0x0 DUP1 REVERT JUMPDEST PUSH1 0x0 DUP1 REVERT JUMPDEST PUSH1 0x0 PUSH1 0x1F NOT PUSH1 0x1F DUP4 ADD AND SWAP1 POP SWAP2 SWAP1 POP JUMP JUMPDEST PUSH32 0x4E487B7100000000000000000000000000000000000000000000000000000000 PUSH1 0x0 MSTORE PUSH1 0x41 PUSH1 0x4 MSTORE PUSH1 0x24 PUSH1 0x0 REVERT JUMPDEST PUSH2 0x137 DUP3 PUSH2 0xEE JUMP JUMPDEST DUP2 ADD DUP2 DUP2 LT PUSH8 0xFFFFFFFFFFFFFFFF DUP3 GT OR ISZERO PUSH2 0x156 JUMPI PUSH2 0x155 PUSH2 0xFF JUMP JUMPDEST JUMPDEST DUP1 PUSH1 0x40 MSTORE POP POP POP JUMP JUMPDEST PUSH1 0x0 PUSH2 0x169 PUSH2 0x72 JUMP JUMPDEST SWAP1 POP PUSH2 0x175 DUP3 DUP3 PUSH2 0x12E JUMP JUMPDEST SWAP2 SWAP1 POP JUMP JUMPDEST PUSH1 0x0 PUSH8 0xFFFFFFFFFFFFFFFF DUP3 GT ISZERO PUSH2 0x195 JUMPI PUSH2 0x194 PUSH2 0xFF JUMP JUMPDEST JUMPDEST PUSH2 0x19E DUP3 PUSH2 0xEE JUMP JUMPDEST SWAP1 POP PUSH1 0x20 DUP2 ADD SWAP1 POP SWAP2 SWAP1 POP JUMP JUMPDEST DUP3 DUP2 DUP4 CALLDATACOPY PUSH1 0x0 DUP4 DUP4 ADD MSTORE POP POP POP JUMP JUMPDEST PUSH1 0x0 PUSH2 0x1CD PUSH2 0x1C8 DUP5 PUSH2 0x17A JUMP JUMPDEST PUSH2 0x15F JUMP JUMPDEST SWAP1 POP DUP3 DUP2 MSTORE PUSH1 0x20 DUP2 ADD DUP5 DUP5 DUP5 ADD GT ISZERO PUSH2 0x1E9 JUMPI PUSH2 0x1E8 PUSH2 0xE9 JUMP JUMPDEST JUMPDEST PUSH2 0x1F4 DUP5 DUP3 DUP6 PUSH2 0x1AB JUMP JUMPDEST POP SWAP4 SWAP3 POP POP POP JUMP JUMPDEST PUSH1 0x0 DUP3 PUSH1 0x1F DUP4 ADD SLT PUSH2 0x211 JUMPI PUSH2 0x210 PUSH2 0xE4 JUMP JUMPDEST JUMPDEST DUP2 CALLDATALOAD PUSH2 0x221 DUP5 DUP3 PUSH1 0x20 DUP7 ADD PUSH2 0x1BA JUMP JUMPDEST SWAP2 POP POP SWAP3 SWAP2 POP POP JUMP JUMPDEST PUSH1 0x0 DUP2 SWAP1 POP SWAP2 SWAP1 POP JUMP JUMPDEST PUSH2 0x23D DUP2 PUSH2 0x22A JUMP JUMPDEST DUP2 EQ PUSH2 0x248 JUMPI PUSH1 0x0 DUP1 REVERT JUMPDEST POP JUMP JUMPDEST PUSH1 0x0 DUP2 CALLDATALOAD SWAP1 POP PUSH2 0x25A DUP2 PUSH2 0x234 JUMP JUMPDEST SWAP3 SWAP2 POP POP JUMP JUMPDEST PUSH1 0x0 DUP2 SWAP1 POP SWAP2 SWAP1 POP JUMP JUMPDEST PUSH2 0x273 DUP2 PUSH2 0x260 JUMP JUMPDEST DUP2 EQ PUSH2 0x27E JUMPI PUSH1 0x0 DUP1 REVERT JUMPDEST POP JUMP JUMPDEST PUSH1 0x0 DUP2 CALLDATALOAD SWAP1 POP PUSH2 0x290 DUP2 PUSH2 0x26A JUMP JUMPDEST SWAP3 SWAP2 POP POP JUMP JUMPDEST PUSH1 0x0 DUP1 PUSH1 0x0 DUP1 PUSH1 0x0 DUP1 PUSH1 0x0 DUP1 PUSH2 0x100 DUP10 DUP12 SUB SLT ISZERO PUSH2 0x2B7 JUMPI PUSH2 0x2B6 PUSH2 0x7C JUMP JUMPDEST JUMPDEST PUSH1 0x0 PUSH2 0x2C5 DUP12 DUP3 DUP13 ADD PUSH2 0xCF JUMP JUMPDEST SWAP9 POP POP PUSH1 0x20 PUSH2 0x2D6 DUP12 DUP3 DUP13 ADD PUSH2 0xCF JUMP JUMPDEST SWAP8 POP POP PUSH1 0x40 DUP10 ADD CALLDATALOAD PUSH8 0xFFFFFFFFFFFFFFFF DUP2 GT ISZERO PUSH2 0x2F7 JUMPI PUSH2 0x2F6 PUSH2 0x81 JUMP JUMPDEST JUMPDEST PUSH2 0x303 DUP12 DUP3 DUP13 ADD PUSH2 0x1FC JUMP JUMPDEST SWAP7 POP POP PUSH1 0x60 DUP10 ADD CALLDATALOAD PUSH8 0xFFFFFFFFFFFFFFFF DUP2 GT ISZERO PUSH2 0x324 JUMPI PUSH2 0x323 PUSH2 0x81 JUMP JUMPDEST JUMPDEST PUSH2 0x330 DUP12 DUP3 DUP13 ADD PUSH2 0x1FC JUMP JUMPDEST SWAP6 POP POP PUSH1 0x80 PUSH2 0x341 DUP12 DUP3 DUP13 ADD PUSH2 0x24B JUMP JUMPDEST SWAP5 POP POP PUSH1 0xA0 PUSH2 0x352 DUP12 DUP3 DUP13 ADD PUSH2 0x281 JUMP JUMPDEST SWAP4 POP POP PUSH1 0xC0 DUP10 ADD CALLDATALOAD PUSH8 0xFFFFFFFFFFFFFFFF DUP2 GT ISZERO PUSH2 0x373 JUMPI PUSH2 0x372 PUSH2 0x81 JUMP JUMPDEST JUMPDEST PUSH2 0x37F DUP12 DUP3 DUP13 ADD PUSH2 0x1FC JUMP JUMPDEST SWAP3 POP POP PUSH1 0xE0 DUP10 ADD CALLDATALOAD PUSH8 0xFFFFFFFFFFFFFFFF DUP2 GT ISZERO PUSH2 0x3A0 JUMPI PUSH2 0x39F PUSH2 0x81 JUMP JUMPDEST JUMPDEST PUSH2 0x3AC DUP12 DUP3 DUP13 ADD PUSH2 0x1FC JUMP JUMPDEST SWAP2 POP POP SWAP3 SWAP6 SWAP9 POP SWAP3 SWAP6 SWAP9 SWAP1 SWAP4 SWAP7 POP JUMP JUMPDEST PUSH1 0x0 DUP2 ISZERO ISZERO SWAP1 POP SWAP2 SWAP1 POP JUMP JUMPDEST PUSH2 0x3D1 DUP2 PUSH2 0x3BC JUMP JUMPDEST DUP3 MSTORE POP POP JUMP JUMPDEST PUSH1 0x0 PUSH1 0x20 DUP3 ADD SWAP1 POP PUSH2 0x3EC PUSH1 0x0 DUP4 ADD DUP5 PUSH2 0x3C8 JUMP JUMPDEST SWAP3 SWAP2 POP POP JUMP INVALID LOG2 PUSH5 0x6970667358 0x22 SLT KECCAK256 0xC6 LOG1 0xE9 SSTORE 0xE4 0xC0 SWAP1 0xAE DUP11 MSTORE 0x1F SGT 0xBF ADDMOD SDIV 0xE7 0x1F PUSH31 0x87AB427275986B97EC595A72867864736F6C63430008140033000000000000 "},"methodIdentifiers":{"validateQuest(address,address,string,string,uint256,bytes32,string,string)":"e9e82185"}}}}}