{
  "_format": "hh-sol-artifact-1",
  "contractName": "Curios",
  "sourceName": "contracts/Curios.sol",
  "abi": [
    {
      "inputs": [
        {
          "internalType": "address",
          "name": "initialOwner",
          "type": "address"
        }
      ],
      "stateMutability": "nonpayable",
      "type": "constructor"
    },
    {
      "inputs": [
        {
          "internalType": "address",
          "name": "owner",
          "type": "address"
        }
      ],
      "name": "OwnableInvalidOwner",
      "type": "error"
    },
    {
      "inputs": [
        {
          "internalType": "address",
          "name": "account",
          "type": "address"
        }
      ],
      "name": "OwnableUnauthorizedAccount",
      "type": "error"
    },
    {
      "anonymous": false,
      "inputs": [
        {
          "indexed": true,
          "internalType": "address",
          "name": "previousOwner",
          "type": "address"
        },
        {
          "indexed": true,
          "internalType": "address",
          "name": "newOwner",
          "type": "address"
        }
      ],
      "name": "OwnershipTransferred",
      "type": "event"
    },
    {
      "anonymous": false,
      "inputs": [
        {
          "indexed": true,
          "internalType": "address",
          "name": "_tokenAddress",
          "type": "address"
        },
        {
          "indexed": true,
          "internalType": "uint256",
          "name": "_questIndex",
          "type": "uint256"
        },
        {
          "indexed": true,
          "internalType": "address",
          "name": "_winner",
          "type": "address"
        }
      ],
      "name": "QuestCompleted",
      "type": "event"
    },
    {
      "anonymous": false,
      "inputs": [
        {
          "indexed": true,
          "internalType": "address",
          "name": "_tokenAddress",
          "type": "address"
        },
        {
          "indexed": true,
          "internalType": "uint256",
          "name": "_questIndex",
          "type": "uint256"
        }
      ],
      "name": "QuestCreated",
      "type": "event"
    },
    {
      "anonymous": false,
      "inputs": [
        {
          "indexed": true,
          "internalType": "address",
          "name": "_tokenAddress",
          "type": "address"
        },
        {
          "indexed": true,
          "internalType": "uint256",
          "name": "_questIndex",
          "type": "uint256"
        }
      ],
      "name": "QuestInvalidated",
      "type": "event"
    },
    {
      "inputs": [
        {
          "internalType": "address",
          "name": "_tokenAddress",
          "type": "address"
        },
        {
          "internalType": "string",
          "name": "_name",
          "type": "string"
        },
        {
          "internalType": "string",
          "name": "_hint",
          "type": "string"
        },
        {
          "internalType": "uint256",
          "name": "_maxWinners",
          "type": "uint256"
        },
        {
          "internalType": "bytes32",
          "name": "_merkleRoot",
          "type": "bytes32"
        },
        {
          "internalType": "string",
          "name": "_merkleBody",
          "type": "string"
        },
        {
          "internalType": "string",
          "name": "_metadata",
          "type": "string"
        }
      ],
      "name": "createQuest",
      "outputs": [],
      "stateMutability": "nonpayable",
      "type": "function"
    },
    {
      "inputs": [
        {
          "internalType": "address",
          "name": "_tokenAddress",
          "type": "address"
        },
        {
          "internalType": "uint256",
          "name": "_questIndex",
          "type": "uint256"
        }
      ],
      "name": "getQuest",
      "outputs": [
        {
          "internalType": "address",
          "name": "creator",
          "type": "address"
        },
        {
          "internalType": "uint256",
          "name": "index",
          "type": "uint256"
        },
        {
          "internalType": "string",
          "name": "name",
          "type": "string"
        },
        {
          "internalType": "string",
          "name": "hint",
          "type": "string"
        },
        {
          "internalType": "bytes32",
          "name": "merkleRoot",
          "type": "bytes32"
        },
        {
          "internalType": "string",
          "name": "merkleBody",
          "type": "string"
        },
        {
          "internalType": "uint256",
          "name": "maxWinners",
          "type": "uint256"
        },
        {
          "internalType": "string",
          "name": "metadata",
          "type": "string"
        },
        {
          "internalType": "bool",
          "name": "valid",
          "type": "bool"
        },
        {
          "internalType": "address[]",
          "name": "winnersIndex",
          "type": "address[]"
        }
      ],
      "stateMutability": "view",
      "type": "function"
    },
    {
      "inputs": [
        {
          "internalType": "address",
          "name": "_tokenAddress",
          "type": "address"
        },
        {
          "internalType": "uint256",
          "name": "_questIndex",
          "type": "uint256"
        }
      ],
      "name": "getQuestWinners",
      "outputs": [
        {
          "internalType": "address[]",
          "name": "",
          "type": "address[]"
        }
      ],
      "stateMutability": "view",
      "type": "function"
    },
    {
      "inputs": [
        {
          "internalType": "address",
          "name": "_tokenAddress",
          "type": "address"
        },
        {
          "internalType": "uint256",
          "name": "_questIndex",
          "type": "uint256"
        }
      ],
      "name": "invalidateQuest",
      "outputs": [],
      "stateMutability": "nonpayable",
      "type": "function"
    },
    {
      "inputs": [],
      "name": "owner",
      "outputs": [
        {
          "internalType": "address",
          "name": "",
          "type": "address"
        }
      ],
      "stateMutability": "view",
      "type": "function"
    },
    {
      "inputs": [
        {
          "internalType": "address",
          "name": "",
          "type": "address"
        },
        {
          "internalType": "uint256",
          "name": "",
          "type": "uint256"
        }
      ],
      "name": "quests",
      "outputs": [
        {
          "internalType": "address",
          "name": "creator",
          "type": "address"
        },
        {
          "internalType": "uint256",
          "name": "index",
          "type": "uint256"
        },
        {
          "internalType": "string",
          "name": "name",
          "type": "string"
        },
        {
          "internalType": "string",
          "name": "hint",
          "type": "string"
        },
        {
          "internalType": "bytes32",
          "name": "merkleRoot",
          "type": "bytes32"
        },
        {
          "internalType": "string",
          "name": "merkleBody",
          "type": "string"
        },
        {
          "internalType": "uint256",
          "name": "maxWinners",
          "type": "uint256"
        },
        {
          "internalType": "string",
          "name": "metadata",
          "type": "string"
        },
        {
          "internalType": "bool",
          "name": "valid",
          "type": "bool"
        }
      ],
      "stateMutability": "view",
      "type": "function"
    },
    {
      "inputs": [],
      "name": "renounceOwnership",
      "outputs": [],
      "stateMutability": "nonpayable",
      "type": "function"
    },
    {
      "inputs": [
        {
          "internalType": "address",
          "name": "_tokenAddress",
          "type": "address"
        },
        {
          "internalType": "uint256",
          "name": "_questIndex",
          "type": "uint256"
        },
        {
          "internalType": "bytes32[]",
          "name": "_proof",
          "type": "bytes32[]"
        },
        {
          "internalType": "bytes32",
          "name": "_answer",
          "type": "bytes32"
        }
      ],
      "name": "submitProof",
      "outputs": [],
      "stateMutability": "nonpayable",
      "type": "function"
    },
    {
      "inputs": [
        {
          "internalType": "address",
          "name": "newOwner",
          "type": "address"
        }
      ],
      "name": "transferOwnership",
      "outputs": [],
      "stateMutability": "nonpayable",
      "type": "function"
    },
    {
      "inputs": [
        {
          "internalType": "address",
          "name": "",
          "type": "address"
        },
        {
          "internalType": "uint256",
          "name": "",
          "type": "uint256"
        },
        {
          "internalType": "address",
          "name": "",
          "type": "address"
        }
      ],
      "name": "winners",
      "outputs": [
        {
          "internalType": "bool",
          "name": "",
          "type": "bool"
        }
      ],
      "stateMutability": "view",
      "type": "function"
    }
  ],
  "bytecode": "0x60806040523480156200001157600080fd5b50604051620024fa380380620024fa8339818101604052810190620000379190620001f4565b80600073ffffffffffffffffffffffffffffffffffffffff168173ffffffffffffffffffffffffffffffffffffffff1603620000ad5760006040517f1e4fbdf7000000000000000000000000000000000000000000000000000000008152600401620000a4919062000237565b60405180910390fd5b620000be81620000c660201b60201c565b505062000254565b60008060009054906101000a900473ffffffffffffffffffffffffffffffffffffffff169050816000806101000a81548173ffffffffffffffffffffffffffffffffffffffff021916908373ffffffffffffffffffffffffffffffffffffffff1602179055508173ffffffffffffffffffffffffffffffffffffffff168173ffffffffffffffffffffffffffffffffffffffff167f8be0079c531659141344cd1fd0a4f28419497f9722a3daafe3b4186f6b6457e060405160405180910390a35050565b600080fd5b600073ffffffffffffffffffffffffffffffffffffffff82169050919050565b6000620001bc826200018f565b9050919050565b620001ce81620001af565b8114620001da57600080fd5b50565b600081519050620001ee81620001c3565b92915050565b6000602082840312156200020d576200020c6200018a565b5b60006200021d84828501620001dd565b91505092915050565b6200023181620001af565b82525050565b60006020820190506200024e600083018462000226565b92915050565b61229680620002646000396000f3fe608060405234801561001057600080fd5b506004361061009e5760003560e01c80638da5cb5b116100665780638da5cb5b14610145578063951372a314610163578063c1fd9d711461019b578063c9be04d5146101b7578063f2fde38b146101f05761009e565b80630c07df77146100a3578063328792f5146100bf57806348ae323c146100db578063715018a61461010b57806387b1f6f914610115575b600080fd5b6100bd60048036038101906100b8919061141c565b61020c565b005b6100d960048036038101906100d491906115d8565b6103f5565b005b6100f560048036038101906100f091906116ea565b6105c2565b6040516101029190611758565b60405180910390f35b6101136105fe565b005b61012f600480360381019061012a919061141c565b610612565b60405161013c9190611831565b60405180910390f35b61014d610703565b60405161015a9190611862565b60405180910390f35b61017d6004803603810190610178919061141c565b61072c565b6040516101929998979695949392919061191a565b60405180910390f35b6101b560048036038101906101b09190611a8b565b6109e4565b005b6101d160048036038101906101cc919061141c565b610d41565b6040516101e79a99989796959493929190611b0e565b60405180910390f35b61020a60048036038101906102059190611bcd565b6110ec565b005b6000600160008473ffffffffffffffffffffffffffffffffffffffff1673ffffffffffffffffffffffffffffffffffffffff168152602001908152602001600020828154811061025f5761025e611bfa565b5b90600052602060002090600a020190508060000160009054906101000a900473ffffffffffffffffffffffffffffffffffffffff1673ffffffffffffffffffffffffffffffffffffffff163373ffffffffffffffffffffffffffffffffffffffff1614806102ff57506102d0610703565b73ffffffffffffffffffffffffffffffffffffffff163373ffffffffffffffffffffffffffffffffffffffff16145b61033e576040517f08c379a000000000000000000000000000000000000000000000000000000000815260040161033590611c75565b60405180910390fd5b8060080160009054906101000a900460ff1661038f576040517f08c379a000000000000000000000000000000000000000000000000000000000815260040161038690611ce1565b60405180910390fd5b60008160080160006101000a81548160ff021916908315150217905550818373ffffffffffffffffffffffffffffffffffffffff167ff04a659fa6b17ea0d3b283dc739b635408d53cd5508bf48de95c3958e573756b60405160405180910390a3505050565b6103fd611172565b6000600160008973ffffffffffffffffffffffffffffffffffffffff1673ffffffffffffffffffffffffffffffffffffffff1681526020019081526020016000206001816001815401808255809150500390600052602060002090600a02019050600060018060008b73ffffffffffffffffffffffffffffffffffffffff1673ffffffffffffffffffffffffffffffffffffffff168152602001908152602001600020805490506104ae9190611d30565b9050338260000160006101000a81548173ffffffffffffffffffffffffffffffffffffffff021916908373ffffffffffffffffffffffffffffffffffffffff1602179055508082600101819055508782600201908161050d9190611f70565b508682600301908161051f9190611f70565b508482600401819055508382600501908161053a9190611f70565b50858260060181905550828260070190816105559190611f70565b5060018260080160006101000a81548160ff021916908315150217905550808973ffffffffffffffffffffffffffffffffffffffff167f144426652b887072b6baa235215a4477206bc9b2ee6a43a1b4e3fe2d3dcc5f8660405160405180910390a3505050505050505050565b6002602052826000526040600020602052816000526040600020602052806000526040600020600092509250509054906101000a900460ff1681565b610606611172565b61061060006111f9565b565b6060600160008473ffffffffffffffffffffffffffffffffffffffff1673ffffffffffffffffffffffffffffffffffffffff168152602001908152602001600020828154811061066557610664611bfa565b5b90600052602060002090600a02016009018054806020026020016040519081016040528092919081815260200182805480156106f657602002820191906000526020600020905b8160009054906101000a900473ffffffffffffffffffffffffffffffffffffffff1673ffffffffffffffffffffffffffffffffffffffff16815260200190600101908083116106ac575b5050505050905092915050565b60008060009054906101000a900473ffffffffffffffffffffffffffffffffffffffff16905090565b6001602052816000526040600020818154811061074857600080fd5b90600052602060002090600a0201600091509150508060000160009054906101000a900473ffffffffffffffffffffffffffffffffffffffff169080600101549080600201805461079890611d93565b80601f01602080910402602001604051908101604052809291908181526020018280546107c490611d93565b80156108115780601f106107e657610100808354040283529160200191610811565b820191906000526020600020905b8154815290600101906020018083116107f457829003601f168201915b50505050509080600301805461082690611d93565b80601f016020809104026020016040519081016040528092919081815260200182805461085290611d93565b801561089f5780601f106108745761010080835404028352916020019161089f565b820191906000526020600020905b81548152906001019060200180831161088257829003601f168201915b5050505050908060040154908060050180546108ba90611d93565b80601f01602080910402602001604051908101604052809291908181526020018280546108e690611d93565b80156109335780601f1061090857610100808354040283529160200191610933565b820191906000526020600020905b81548152906001019060200180831161091657829003601f168201915b50505050509080600601549080600701805461094e90611d93565b80601f016020809104026020016040519081016040528092919081815260200182805461097a90611d93565b80156109c75780601f1061099c576101008083540402835291602001916109c7565b820191906000526020600020905b8154815290600101906020018083116109aa57829003601f168201915b5050505050908060080160009054906101000a900460ff16905089565b6000600160008673ffffffffffffffffffffffffffffffffffffffff1673ffffffffffffffffffffffffffffffffffffffff1681526020019081526020016000208481548110610a3757610a36611bfa565b5b90600052602060002090600a020190508060080160009054906101000a900460ff16610a98576040517f08c379a0000000000000000000000000000000000000000000000000000000008152600401610a8f9061208e565b60405180910390fd5b806006015481600901805490501080610ab5575060008160060154145b610af4576040517f08c379a0000000000000000000000000000000000000000000000000000000008152600401610aeb906120fa565b60405180910390fd5b8060000160009054906101000a900473ffffffffffffffffffffffffffffffffffffffff1673ffffffffffffffffffffffffffffffffffffffff163373ffffffffffffffffffffffffffffffffffffffff1603610b86576040517f08c379a0000000000000000000000000000000000000000000000000000000008152600401610b7d9061218c565b60405180910390fd5b610b95838260040154846112bd565b610bd4576040517f08c379a0000000000000000000000000000000000000000000000000000000008152600401610bcb906121f8565b60405180910390fd5b6001600260008773ffffffffffffffffffffffffffffffffffffffff1673ffffffffffffffffffffffffffffffffffffffff168152602001908152602001600020600086815260200190815260200160002060003373ffffffffffffffffffffffffffffffffffffffff1673ffffffffffffffffffffffffffffffffffffffff16815260200190815260200160002060006101000a81548160ff02191690831515021790555080600901339080600181540180825580915050600190039060005260206000200160009091909190916101000a81548173ffffffffffffffffffffffffffffffffffffffff021916908373ffffffffffffffffffffffffffffffffffffffff1602179055503373ffffffffffffffffffffffffffffffffffffffff16848673ffffffffffffffffffffffffffffffffffffffff167fe97fb11f0e59fadbecf21716a4f420924944402a59ab574cbb3ef6185cd733a660405160405180910390a45050505050565b6000806060806000606060006060600060606000600160008e73ffffffffffffffffffffffffffffffffffffffff1673ffffffffffffffffffffffffffffffffffffffff1681526020019081526020016000208c81548110610da657610da5611bfa565b5b90600052602060002090600a020190508060000160009054906101000a900473ffffffffffffffffffffffffffffffffffffffff16816001015482600201836003018460040154856005018660060154876007018860080160009054906101000a900460ff1689600901878054610e1c90611d93565b80601f0160208091040260200160405190810160405280929190818152602001828054610e4890611d93565b8015610e955780601f10610e6a57610100808354040283529160200191610e95565b820191906000526020600020905b815481529060010190602001808311610e7857829003601f168201915b50505050509750868054610ea890611d93565b80601f0160208091040260200160405190810160405280929190818152602001828054610ed490611d93565b8015610f215780601f10610ef657610100808354040283529160200191610f21565b820191906000526020600020905b815481529060010190602001808311610f0457829003601f168201915b50505050509650848054610f3490611d93565b80601f0160208091040260200160405190810160405280929190818152602001828054610f6090611d93565b8015610fad5780601f10610f8257610100808354040283529160200191610fad565b820191906000526020600020905b815481529060010190602001808311610f9057829003601f168201915b50505050509450828054610fc090611d93565b80601f0160208091040260200160405190810160405280929190818152602001828054610fec90611d93565b80156110395780601f1061100e57610100808354040283529160200191611039565b820191906000526020600020905b81548152906001019060200180831161101c57829003601f168201915b50505050509250808054806020026020016040519081016040528092919081815260200182805480156110c157602002820191906000526020600020905b8160009054906101000a900473ffffffffffffffffffffffffffffffffffffffff1673ffffffffffffffffffffffffffffffffffffffff1681526020019060010190808311611077575b505050505090509a509a509a509a509a509a509a509a509a509a50509295989b9194979a5092959850565b6110f4611172565b600073ffffffffffffffffffffffffffffffffffffffff168173ffffffffffffffffffffffffffffffffffffffff16036111665760006040517f1e4fbdf700000000000000000000000000000000000000000000000000000000815260040161115d9190611862565b60405180910390fd5b61116f816111f9565b50565b61117a6112d4565b73ffffffffffffffffffffffffffffffffffffffff16611198610703565b73ffffffffffffffffffffffffffffffffffffffff16146111f7576111bb6112d4565b6040517f118cdaa70000000000000000000000000000000000000000000000000000000081526004016111ee9190611862565b60405180910390fd5b565b60008060009054906101000a900473ffffffffffffffffffffffffffffffffffffffff169050816000806101000a81548173ffffffffffffffffffffffffffffffffffffffff021916908373ffffffffffffffffffffffffffffffffffffffff1602179055508173ffffffffffffffffffffffffffffffffffffffff168173ffffffffffffffffffffffffffffffffffffffff167f8be0079c531659141344cd1fd0a4f28419497f9722a3daafe3b4186f6b6457e060405160405180910390a35050565b6000826112ca85846112dc565b1490509392505050565b600033905090565b60008082905060005b8451811015611327576113128286838151811061130557611304611bfa565b5b6020026020010151611332565b9150808061131f90612218565b9150506112e5565b508091505092915050565b600081831061134a57611345828461135d565b611355565b611354838361135d565b5b905092915050565b600082600052816020526040600020905092915050565b6000604051905090565b600080fd5b600080fd5b600073ffffffffffffffffffffffffffffffffffffffff82169050919050565b60006113b382611388565b9050919050565b6113c3816113a8565b81146113ce57600080fd5b50565b6000813590506113e0816113ba565b92915050565b6000819050919050565b6113f9816113e6565b811461140457600080fd5b50565b600081359050611416816113f0565b92915050565b600080604083850312156114335761143261137e565b5b6000611441858286016113d1565b925050602061145285828601611407565b9150509250929050565b600080fd5b600080fd5b6000601f19601f8301169050919050565b7f4e487b7100000000000000000000000000000000000000000000000000000000600052604160045260246000fd5b6114af82611466565b810181811067ffffffffffffffff821117156114ce576114cd611477565b5b80604052505050565b60006114e1611374565b90506114ed82826114a6565b919050565b600067ffffffffffffffff82111561150d5761150c611477565b5b61151682611466565b9050602081019050919050565b82818337600083830152505050565b6000611545611540846114f2565b6114d7565b90508281526020810184848401111561156157611560611461565b5b61156c848285611523565b509392505050565b600082601f8301126115895761158861145c565b5b8135611599848260208601611532565b91505092915050565b6000819050919050565b6115b5816115a2565b81146115c057600080fd5b50565b6000813590506115d2816115ac565b92915050565b600080600080600080600060e0888a0312156115f7576115f661137e565b5b60006116058a828b016113d1565b975050602088013567ffffffffffffffff81111561162657611625611383565b5b6116328a828b01611574565b965050604088013567ffffffffffffffff81111561165357611652611383565b5b61165f8a828b01611574565b95505060606116708a828b01611407565b94505060806116818a828b016115c3565b93505060a088013567ffffffffffffffff8111156116a2576116a1611383565b5b6116ae8a828b01611574565b92505060c088013567ffffffffffffffff8111156116cf576116ce611383565b5b6116db8a828b01611574565b91505092959891949750929550565b6000806000606084860312156117035761170261137e565b5b6000611711868287016113d1565b935050602061172286828701611407565b9250506040611733868287016113d1565b9150509250925092565b60008115159050919050565b6117528161173d565b82525050565b600060208201905061176d6000830184611749565b92915050565b600081519050919050565b600082825260208201905092915050565b6000819050602082019050919050565b6117a8816113a8565b82525050565b60006117ba838361179f565b60208301905092915050565b6000602082019050919050565b60006117de82611773565b6117e8818561177e565b93506117f38361178f565b8060005b8381101561182457815161180b88826117ae565b9750611816836117c6565b9250506001810190506117f7565b5085935050505092915050565b6000602082019050818103600083015261184b81846117d3565b905092915050565b61185c816113a8565b82525050565b60006020820190506118776000830184611853565b92915050565b611886816113e6565b82525050565b600081519050919050565b600082825260208201905092915050565b60005b838110156118c65780820151818401526020810190506118ab565b60008484015250505050565b60006118dd8261188c565b6118e78185611897565b93506118f78185602086016118a8565b61190081611466565b840191505092915050565b611914816115a2565b82525050565b600061012082019050611930600083018c611853565b61193d602083018b61187d565b818103604083015261194f818a6118d2565b9050818103606083015261196381896118d2565b9050611972608083018861190b565b81810360a083015261198481876118d2565b905061199360c083018661187d565b81810360e08301526119a581856118d2565b90506119b5610100830184611749565b9a9950505050505050505050565b600067ffffffffffffffff8211156119de576119dd611477565b5b602082029050602081019050919050565b600080fd5b6000611a07611a02846119c3565b6114d7565b90508083825260208201905060208402830185811115611a2a57611a296119ef565b5b835b81811015611a535780611a3f88826115c3565b845260208401935050602081019050611a2c565b5050509392505050565b600082601f830112611a7257611a7161145c565b5b8135611a828482602086016119f4565b91505092915050565b60008060008060808587031215611aa557611aa461137e565b5b6000611ab3878288016113d1565b9450506020611ac487828801611407565b935050604085013567ffffffffffffffff811115611ae557611ae4611383565b5b611af187828801611a5d565b9250506060611b02878288016115c3565b91505092959194509250565b600061014082019050611b24600083018d611853565b611b31602083018c61187d565b8181036040830152611b43818b6118d2565b90508181036060830152611b57818a6118d2565b9050611b66608083018961190b565b81810360a0830152611b7881886118d2565b9050611b8760c083018761187d565b81810360e0830152611b9981866118d2565b9050611ba9610100830185611749565b818103610120830152611bbc81846117d3565b90509b9a5050505050505050505050565b600060208284031215611be357611be261137e565b5b6000611bf1848285016113d1565b91505092915050565b7f4e487b7100000000000000000000000000000000000000000000000000000000600052603260045260246000fd5b7f4e6f7420617574686f72697a6564000000000000000000000000000000000000600082015250565b6000611c5f600e83611897565b9150611c6a82611c29565b602082019050919050565b60006020820190508181036000830152611c8e81611c52565b9050919050565b7f517565737420616c726561647920696e76616c69646174656400000000000000600082015250565b6000611ccb601983611897565b9150611cd682611c95565b602082019050919050565b60006020820190508181036000830152611cfa81611cbe565b9050919050565b7f4e487b7100000000000000000000000000000000000000000000000000000000600052601160045260246000fd5b6000611d3b826113e6565b9150611d46836113e6565b9250828203905081811115611d5e57611d5d611d01565b5b92915050565b7f4e487b7100000000000000000000000000000000000000000000000000000000600052602260045260246000fd5b60006002820490506001821680611dab57607f821691505b602082108103611dbe57611dbd611d64565b5b50919050565b60008190508160005260206000209050919050565b60006020601f8301049050919050565b600082821b905092915050565b600060088302611e267fffffffffffffffffffffffffffffffffffffffffffffffffffffffffffffffff82611de9565b611e308683611de9565b95508019841693508086168417925050509392505050565b6000819050919050565b6000611e6d611e68611e63846113e6565b611e48565b6113e6565b9050919050565b6000819050919050565b611e8783611e52565b611e9b611e9382611e74565b848454611df6565b825550505050565b600090565b611eb0611ea3565b611ebb818484611e7e565b505050565b5b81811015611edf57611ed4600082611ea8565b600181019050611ec1565b5050565b601f821115611f2457611ef581611dc4565b611efe84611dd9565b81016020851015611f0d578190505b611f21611f1985611dd9565b830182611ec0565b50505b505050565b600082821c905092915050565b6000611f4760001984600802611f29565b1980831691505092915050565b6000611f608383611f36565b9150826002028217905092915050565b611f798261188c565b67ffffffffffffffff811115611f9257611f91611477565b5b611f9c8254611d93565b611fa7828285611ee3565b600060209050601f831160018114611fda5760008415611fc8578287015190505b611fd28582611f54565b86555061203a565b601f198416611fe886611dc4565b60005b8281101561201057848901518255600182019150602085019450602081019050611feb565b8683101561202d5784890151612029601f891682611f36565b8355505b6001600288020188555050505b505050505050565b7f5175657374206973206e6f742076616c69640000000000000000000000000000600082015250565b6000612078601283611897565b915061208382612042565b602082019050919050565b600060208201905081810360008301526120a78161206b565b9050919050565b7f4d61782077696e6e657273207265616368656400000000000000000000000000600082015250565b60006120e4601383611897565b91506120ef826120ae565b602082019050919050565b60006020820190508181036000830152612113816120d7565b9050919050565b7f43726561746f722063616e6e6f742077696e207468656972206f776e2071756560008201527f7374000000000000000000000000000000000000000000000000000000000000602082015250565b6000612176602283611897565b91506121818261211a565b604082019050919050565b600060208201905081810360008301526121a581612169565b9050919050565b7f496e76616c6964204d65726b6c652070726f6f66000000000000000000000000600082015250565b60006121e2601483611897565b91506121ed826121ac565b602082019050919050565b60006020820190508181036000830152612211816121d5565b9050919050565b6000612223826113e6565b91507fffffffffffffffffffffffffffffffffffffffffffffffffffffffffffffffff820361225557612254611d01565b5b60018201905091905056fea2646970667358221220ea4b691c79f0ce2891944491e171f0745549f0236aa85bd177516d696434608b64736f6c63430008140033",
  "linkReferences": {},
  "deployedLinkReferences": {}
}